:100000000080002095010000C1010000C101000036
:10001000C1010000C1010000C1010000C1010000D8
:10002000C1010000C1010000C1010000C1010000C8
:10003000C1010000C0010000C1010000C1010000B9
:10004000C1010000C1010000C1010000C1010000A8
:10005000C1010000C1010000C1010000C101000098
:10006000C1010000C1010000C1010000C101000088
:10007000C1010000C1010000C1010000C101000078
:10008000C1010000C1010000C1010000C101000068
:10009000C1010000C1010000C1010000C101000058
:1000A000C1010000C1010000C1010000C101000048
:1000B000C1010000C1010000C1010000C101000038
:1000C000C1010000C1010000C1010000C101000028
:1000D000C1010000C1010000C1010000C101000018
:1000E00010B5054C237833B9044B13B10448AFF372
:1000F00000800123237010BD740000200000000068
:10010000940A000008B5034B1BB103490348AFF341
:10011000008008BD0000000078000020940A000064
:10012000154B002B08BF134B9D46A3F5803A0021C9
:100130008B460F461348144A121A00F075FC0F4BF9
:10014000002B00D098470E4B002B00D09847002082
:10015000002104000D000D48002802D00C48AFF328
:10016000008000F03DFC2000290000F0A3FB00F01F
:1001700023FC00BF000008000080002000000000F9
:100180000000000074000020E000002000000000DB
:1001900000000000064880470649074A074B9A427C
:1001A000BEBF51F8040B42F8040BF8E7FFF7B8FFA5
:1001B000B1020000A00A000000000020740000202E
:1001C000FEE700BF264AD36A03F47053B3F5805F9D
:1001D00024D0B3F5005F1ED0B3F5006F11D0D36803
:1001E00003F4E063B3F5007F37D01AD9B3F5806F1D
:1001F00031D0B3F5A06F2CD0B3F5407F1ED00020D6
:1002000001E0184B1868164B1B68C3F382330133A7
:10021000B0FBF3F07047144B1868F4E74FF400405C
:10022000F1E76BB1B3F5807FE9D1104B1048DA6C80
:10023000104BB2F1985F38BF1846E4E70E48E2E78A
:100240000A4B0E48DA6C0E4BB2F1985F38BF184675
:10025000D9E70C48D7E70C48D5E70C48D3E700BFEF
:1002600000800C400400002008000020B081E00F56
:1002700040B56400C0CF6A00809FD500804F120057
:1002800040420F00003FAB01406F4001C0D8A700C3
:1002900008B5FFF797FF044B044A5B6803F00F03B0
:1002A000D840106008BD00BF00800C400000002056
:1002B000044B054A9A60D3F8882042F47002C3F8D0
:1002C0008820704700ED00E0000000004FF400407F
:1002D000704700BF4FF47A70704700BF014B186839
:1002E000704700BF08000020184B5B6903F4E0630F
:1002F000B3F5007F20D00AD9B3F5C06F0DD0B3F5A8
:10030000E06F17D0B3F5407F09D0002070477BB174
:10031000B3F5807FF9D10E4870470E4870470E4BF9
:100320000E48DA6C0E4BB2F1985F38BF1846704732
:100330000C4870470C487047074B0C48DA6C0C4B64
:10034000B2F1985F38BF1846704700BF00800C407C
:10035000C0D8A700003FAB01B081E00F804F120072
:1003600040420F00809FD500406F400140B56400BF
:10037000C0CF6A0000F00F000138062852D8DFE82D
:1003800000F014243551514604002B4BDB6A03F472
:100390006033B3F5803F49D0B3F5003F44D0B3F5A7
:1003A000004F0CBF092001207047234BDB6A03F488
:1003B0007053B3F5805F37D0B3F5005F36D0B3F537
:1003C000006F0CBF0420052070471B4B986A00F09B
:1003D0000300022829D003282AD0012824D09B6AB0
:1003E00013F4803F0CBF01200A207047124A936A21
:1003F00003F00C03082B19D00C2B19D0042B13D0AD
:10040000936A13F4801F0CBF01200A2070470A4B27
:100410001B6813F080530DD0B3F1805F0CBF09202F
:10042000012070470020704703207047022070476A
:10043000062070470720704700800C4008B5014631
:10044000FFF798FF1D4B994217D01D4B994207D0DB
:10045000022825D0032818D001281DD0002008BD6F
:10046000184A936AC3F38103022B19D0032B0CD0D3
:10047000012B11D0906A14231AE0124A936A03F0F8
:100480000303022B0CD0032B0ED1FFF701FF0E4B01
:100490001B680133D84008BDBDE80840FFF716BF10
:1004A000BDE80840FFF71ABF012BF5D0906A102372
:1004B000D840D4D0BDE80840FFF70CBF02001E00B2
:1004C0000300200000800C407800904300F4781076
:1004D000B0F5D01F08B576D00ED8B0F5602F62D039
:1004E00020D8B0F5003F5AD0B0F5802F00F09480AE
:1004F00000285FD0002008BDB0F5181F7ED01ED8A0
:10050000B0F5F01F46D0B0F5001F57D0B0F5E01F92
:10051000F0D14748FFF792FF464B1B6FC3F301131F
:10052000D84008BDB0F5901F1CD0B0F5B01F53D017
:10053000B0F5801FDED1BDE80840FFF7D5BEB0F5AD
:10054000301F18D0B0F5381F4FD0B0F5281FD1D1CB
:100550003948FFF773FF374B9B6EC3F30133043306
:10056000D84008BD3448FFF769FF324B9B6EC3F398
:100570000313D84008BD3048FFF760FF2D4A936E43
:10058000D26FC3F3013302F00702D8400132B0FB4F
:10059000F2F008BD2848BDE80840FFF74FBFBDE8AE
:1005A0000840FFF775BE2548FFF7E4FE0728C2D0D4
:1005B00009289FD1BDE80840FFF704BE1C48BDE8EC
:1005C0000840FFF73BBF1A48FFF738FF194B1B6F76
:1005D00003F00303D84008BD1748FFF72FFF154B62
:1005E0009B6EC3F30323D84008BD1348FFF726FFD3
:1005F000104B9B6E03F00303D84008BD1048FFF773
:10060000B9FE032810D00928D4D002287FF472AF95
:10061000BDE80840FFF762BEFFF7D4FD054B9B68BD
:1006200003F00F03D84008BDBDE80840FFF74EBEF9
:100630000300200000800C4002001E0006000E0097
:100640000723260030B5C0F30323013B83B00446E3
:10065000092B11D8DFE803F042191D1010053910DD
:10066000103E224DC0F304340120214B5A6DD207B5
:1006700004D52C44A400216003B030BD1A6D0242A1
:10068000F7D01A6D0242F9D1F3E7C0F30434194DE3
:10069000EFE719480191FFF719FF184B01999842AC
:1006A00020D9174B012598428CBF4FF400734FF4AB
:1006B000807314480E4A05605068134D20F4807012
:1006C0001843C4F304345060D3E7C0F304340F4D2F
:1006D0001020CAE7C0F304340D4DCAE7C0F3043458
:1006E0000C4DC6E700231D46E3E700BFC002E4103F
:1006F00000800C402002E4100043020000366E012E
:10070000006CDC02780090430002E4100003E41067
:10071000C003E4104000E410F0B492BBC4002518FC
:10072000AD0005F18045072905F5C04519D88F00B2
:100730006E684FF00F0C0CFA07FC26EA0C0602FA62
:1007400007F73E436E6052B90444A400012204F14D
:10075000804402FA01F104F5C04403BB6161F0BCBE
:10076000704701F18046083EAF68B6004FF00F0CAD
:100770000CFA06FC27EA0C0702FA06F63E43AE60C6
:10078000E1E7C4002518AD00012605F180458E4043
:1007900005F5C0450BB12E61C1E76E61BFE7216170
:1007A000F0BC7047F8B5054616461C46E9B1202C4A
:1007B00021D022D9402C16D0602C13D104222B68D2
:1007C000104F23F060032B6006FB02F62B687208C3
:1007D00002EB8102B2FBF6F2043A07EA82121C43F2
:1007E0002C606A61F8BD0622E9E70748FFF76EFE54
:1007F000202C0146DDD10822E1E7002CF2D11022A5
:10080000DDE700BFC0FF1F0040810400204A70B533
:100810000446002340F6AA6641F205000D469442C4
:1008200041F6F971E66023606060A3606361E36490
:10083000A164636529D0174AA365944202D0164B80
:100840009C4201D10023E365AB7C1BB1236843F0DC
:1008500080432360EB7C1BB12B7D43F01003A36529
:10086000697B2E8AE8892B7BAA683143014361604A
:1008700020466968FFF796FF6B7D1BB1236843F440
:10088000803323602B78E36070BD2365A365DBE7CD
:1008900000C0004000C4004000C8004003691B06BF
:1008A000FCD5C069C0B2704703695B06FCD54163E3
:1008B000704700BFF0B5374E374D0FCE91B001AC49
:1008C0000FC496E8030084E803000FCD07AC0FC403
:1008D0000FCD0FC42A68314B228001241C642146AD
:1008E0002F48304DFFF7AEFE21462F48FFF7AAFEF6
:1008F00021462E48FFF7A6FE22462146002304206B
:10090000FFF70AFF0422234610460021FFF704FFE9
:100910002346042207210520FFF7FEFE244B8022F8
:10092000C3F8C42001A92846FFF770FF6B6D43F49C
:10093000817323436B650DF11D066924532102E089
:10094000214616F8014F2846FFF7AEFF002CF7D1DD
:10095000184F144E174D002402E001344F2C07D0DD
:100960003046FFF79BFF0D2805F8010BF5D144B188
:10097000104D15F8011B3046FFF796FFEB1B9C420C
:10098000F7DC30460D21FFF78FFF0C213046FFF7D3
:100990008BFFDFE7540A00006C0A000000000C40E7
:1009A00000D2040000E00040003204004081040056
:1009B000006000409000002008B5074B044613B1CA
:1009C0000021AFF30080054B1868836A03B1984794
:1009D000204600F031F800BF00000000900A00003F
:1009E00070B50D4E0D4CA41BA4100025A54209D1D5
:1009F0000B4E0C4C00F022F8A41BA4100025A542BD
:100A000005D170BD56F8253098470135EEE756F808
:100A1000253098470135F2E76C0000206C0000207B
:100A20006C0000207000002002440346934200D175
:100A3000704703F8011BF9E7FEE700BFF8B500BFF8
:100A4000F8BC08BC9E467047F8B500BFF8BC08BCAF
:100A50009E467047050000000000000000C2010033
:100A600000050000001000000000000053696C69E0
:100A7000636F6E204C616273205541525420436F66
:100A80006465206578616D706C65210D0C00000057
:080A90000C0000200000000032
:080A980088F6FF7F0100000059
:100AA000809FD500006CDC02008000000000000088
:100AB0000000000000000000000000000000000036
:100AC0000000000000000000000000000000000026
:100AD0000000000000000000000000000000000016
:100AE0000000000000000000000000000000000006
:100AF00000000000000000000000000000000000F6
:100B000000000000000000000000000005010000DF
:040B1000E100000000
:040000030000019563
:00000001FF
